:100000000C944A000C9469000C9469000C946900EB
:100010000C9469000C9469000C9469000C946900BC
:100020000C9469000C9469000C9469000C946900AC
:100030000C9470000C9469000C9469000C94690095
:100040000C9469000C9469000C9428020C946900CB
:100050000C9469000C9469000C9469000C9469007C
:100060000C9469000C9469000C9469000C9469006C
:100070000C9469000C9469000C9469000C9469005C
:100080000C9469000C9469000C9469000C9469004C
:100090000C94690011241FBECFEFD0E1DEBFCDBFAD
:1000A00011E0A0E0B1E0E4E6F0E100E00BBF02C047
:1000B00007900D92A83DB107D9F723E0A8EDB1E074
:1000C00001C01D92A23EB207E1F70E947F060C9488
:1000D00030080C9400009093D9018093D8010895C2
:1000E0001F920F920FB60F9211240BB60F922F93FF
:1000F0003F934F935F936F937F938F939F93AF93B0
:10010000BF93EF93FF93E091D801F091D90130971D
:1001100009F009958091DA019091DB01A091DC0151
:10012000B091DD010196A11DB11D8093DA0190937C
:10013000DB01A093DC01B093DD01FF91EF91BF9152
:10014000AF919F918F917F916F915F914F913F916F
:100150002F910F900BBE0F900FBE0F901F90189510
:100160001816190644F4EFE9FFE03197F1F700C0E3
:1001700000000197F5CF0895CF93DF9360E875E213
:1001800080E090E00E94C20186E191E00E94260298
:100190008DE391E00E94260241E061E080E30E944D
:1001A000BE0341E061E081E30E94BE0360E080E3C2
:1001B0000E94260460E081E30E94260461E080E35F
:1001C0000E9426048DE794E09093D9018093D80192
:1001D0001092800089E08093810080E89EE39093F4
:1001E00089008093880082E080936F008FB78068D9
:1001F0008FBF0E94A40284ED90E00E94E102811171
:1002000009C08FE491E00E94260284E690E00E94FB
:10021000B000FBCF0E942B010E944C05C0E0D1E052
:1002200040E060E089910E94BE0381E0C830D807B9
:10023000B9F760E080E30E94260487E991E0DF914E
:10024000CF910C942602E82FF0E0E050FF4F808120
:1002500081500C94530440E061E080E10E94BE03B1
:1002600040E061E081E10E94BE0340E061E082E1A4
:100270000E94BE0340E061E083E10E94BE0340E0D3
:1002800061E084E10E94BE0340E061E085E10E94FC
:10029000BE0381E0089591E0811101C090E06130DA
:1002A00011F085E101C082E1692F0C942604E62F4C
:1002B000F0E0EE0FFF1FEA5FFE4F91838083089509
:1002C0008F929F92AF92BF92DF92EF92FF920F9325
:1002D0001F93CF93DF938C01D62FC42FE42FF0E030
:1002E000EE0FFF1FEA5FFE4F80819181089F900112
:1002F000099F300D189F300D112440E050E060E65A
:100300007AEE80E090E00E94C60649015A0161E061
:10031000D11101C060E0C13011F083E101C080E182
:100320000E942604C13019F421E1D22E02C094E1CA
:10033000D92EC40197FC0196EC01D595C795E12C07
:10034000F12CE016F10691F061E08D2D0E9426045B
:10035000CE010E94B00060E08D2D0E942604CE01E7
:100360000E94B0008FEFE81AF80AEBCFDF91CF912F
:100370001F910F91FF90EF90DF90BF90AF909F90F3
:100380008F9008959B01AC0183E0220F331F441F1F
:10039000551F8A95D1F760E876E988E990E00E94D8
:1003A000A406BA01A9014150510961097109BB278D
:1003B000A72F962F852F8093C5004093C400E0ECB3
:1003C000F0E0808182608083E1ECF0E080818061F8
:1003D0008083699A689880818860808380818B7F20
:1003E0008083E2ECF0E080818F77808380818F7B57
:1003F000808380818F7D808380818F7E80838081D8
:10040000877F80838081877F8083808184608083F1
:1004100080818260808308959091C00095FFFCCF19
:100420008093C60008958091C00087FFFCCF809123
:10043000C6000895CF93DF93EC018991882319F0CA
:100440000E940C02FACFDF91CF910895089508958C
:100450001F920F920FB60F9211240BB60F922F938B
:100460003F934F935F938F939F93EF93FF933091BD
:10047000ED0080E0982F9295907F9093ED00909101
:10048000EE0095FF40C080E88093EF008091EE0081
:100490008F7D8093EE0080E090E05AE04091DF0194
:1004A0002091FA00FC01549FE00DF11D1124EF5141
:1004B000FE4F208301968830910581F7E091DF019E
:1004C0002091F2008091F30022952695277048E054
:1004D000849FC0011124822B2AE0E29FF0011124A5
:1004E000EF51FE4F918780878091DF018F5F80936E
:1004F000DF01823311F41092DF018091DE018F5F02
:100500008093DE0110C09091EE0096FF08C010921B
:10051000EF008091EE008F7B8093EE0004C08F5F30
:100520008F3009F0A7CF3093ED00FF91EF919F91AD
:100530008F915F914F913F912F910F900BBE0F9034
:100540000FBE0F901F90189581E08093D80080E037
:10055000982F9295907F9093ED001092EE0010925C
:10056000EF001092F3001092F2001092F10010923E
:10057000F0001092F7001092F6001092F500109221
:10058000F40098E01092FA009150E1F78F5F8F30FD
:10059000F9F682E08093D80081E08093E2008AE05F
:1005A0008093E3008EE68093E4001092E50080EBF8
:1005B0008093DB008FE78093DF008FEF8093DE0076
:1005C00008954091ED002091D90024FDFCCF2091A9
:1005D000D90023FDF8CF20E0322F3295307F3093C1
:1005E000ED003091EF00329536953695337039F045
:1005F0002F5F2F3089F74093ED0080E008952FE0C2
:100600002093EF009C01332793E0369527959A9528
:10061000E1F72093F3008295880F807E8093F200AB
:1006200080EE8093F6008FEF8093F7008091EF00CB
:1006300080688093EF0078944093ED0081E0089506
:100640009091DE0181E0911101C080E00895209138
:10065000DE012223E1F3F894DC0120E030E05AE0EF
:100660004091E001F901549FE00DF11D1124EF517B
:10067000FE4F40814D932F5F3F4F2830310581F76A
:10068000E091E0012AE0E29FF0011124EF51FE4FDA
:1006900020853185FC01318720878091E0018F5FC3
:1006A0008093E001823311F41092E0018091DE0129
:1006B00081508093DE01789408950F931F93CF9318
:1006C000DF93CDB7DEB72A970FB6F894DEBF0FBE23
:1006D000CDBF09831A832B833C834D835E836F8355
:1006E000788789879A8789859A852091D90024FD02
:1006F000FCCF2091D90023FDF8CF4091ED0020E000
:10070000322F3295307F3093ED003091EF003295EB
:1007100036953695337029F02F5F2F3089F780E0BA
:1007200022C0282F2295220F207E2093F20023E062
:10073000969587952A95E1F78093F30088E080935A
:10074000EF00FE013196CE01099621912093FA0027
:100750008E179F07D1F78091EF0080648093EF00A0
:100760004093ED0081E02A960FB6F894DEBF0FBEED
:10077000CDBFDF91CF911F910F9108950F931F93DC
:10078000CF93DF93E0910E01F0910F013D97EF01C0
:100790002D9691E0CC30D90749F09081981302C092
:1007A00081E04FC00784F089E02DF0CFE82FE69577
:1007B000E695E695EF5F582F5770F0E06130A9F4A9
:1007C0003197CF01880F991FE80FF91F21A181E010
:1007D00090E001C0880F5A95EAF7922F982B91A3C9
:1007E00092A18095892382A32BC0042F182F3197C3
:1007F000CF01880F991FE80FF91F81A121E030E098
:1008000001C0220F5A95EAF72095282321A381E100
:1008100090E00E940F07FC01009711F21083018302
:100820000D96A0910E01B0910F0111969C938E939D
:10083000B08BA787D687C58790930F0180930E0151
:1008400080E0DF91CF911F910F910895482F47705D
:100850008695869586958F5FE82FF0E03197CF01DA
:10086000880F991FE80FF91F82A193A1A4A1B5A138
:1008700090E021E030E002C0220F331F4A95E2F7FA
:10088000662319F0822B932B04C020953095822388
:100890009323092E000CAA0BBB0B82A393A3A4A342
:1008A000B5A380E00895E0910E01F0910F013D970E
:1008B00090E0EF3FF907F9F09081981318C0DF013D
:1008C0001296CF010B963D912C91321711F0848531
:1008D0000895A817B907B9F781819281811102C0E3
:1008E000892F03C081E0911180E0848708950784F7
:1008F000F089E02DDCCF81E00895E0910E01F091C8
:100900000F013D9780E0EF3FF80719F13091D503D3
:100910002081822F8695869586958F5F90E001973E
:10092000AC01440F551FDA01A80FB91F90968C91A6
:10093000DF01A30FB11D90E0277002C09595879548
:100940002A95E2F7817012968C930784F089E02D46
:10095000D8CF8091D5038F5F8093D5038A3011F46F
:100960001092D5030895CF92DF92EF92FF920F93EA
:100970001F93CF93DF938C01EB01F42E86EA91E075
:100980000E942602C8010E94270286ED91E00E9483
:100990002602CE010E94270286ED91E00E942602E7
:1009A0008F2D90E00E94270284EA91E00E942602A7
:1009B00081E0F81621F082E0F81689F164C02FEF8B
:1009C0003FEFD8010E94E50624E630E040E050E029
:1009D0000E94C60630939D0020939C002FEF2C9F11
:1009E000C0012D9F900D112464E670E00E949006D6
:1009F00067BD0115110521F460E085E20E9426041F
:100A0000209721F460E08FE00E9426041093DB031E
:100A10000093DA03D093D903C093D80334C02FEFE7
:100A20003FEFD8010E94E50624E6C22ED12CE12C2E
:100A3000F12CA70196010E94C606309399002093DD
:100A400098002FEF3FEFDE010E94E506A701960117
:100A50000E94C60630939B0020939A000115110551
:100A600021F460E083E20E942604209721F460E0F4
:100A700084E20E9426041093D7030093D603D093F8
:100A8000DD03C093DC03DF91CF911F910F91FF90A5
:100A9000EF90DF90CF90089540E061E083E20E9404
:100AA000BE0340E061E084E20E94BE0340E061E0FA
:100AB00085E20E94BE0340E061E08FE00E94BE0339
:100AC00088E893E1909397008093960010929500A8
:100AD0001092940016BC10929900109298001092F7
:100AE0009B0010929A0010929D0010929C008AEA3E
:100AF000809390008AE18093910084B5896684BDDB
:100B000041E060E070E080E090E00E94B30442E0E9
:100B100060E070E080E090E00E94B30481E008951E
:100B2000482F64E670E084E690E00C94B304EF9202
:100B3000FF920F931F93CF93DF93FC01C901E13024
:100B4000F10521F0329709F46BC0D2C06130710514
:100B500091F51092D7031092D6032091DC033091C7
:100B6000DD03EA01C21BD30B64E670E00E9490062D
:100B70007B0100E010E00E151F050CF0B9C0CE019E
:100B8000B7010E9490068091DC039091DD03680F0D
:100B9000791F7093DD036093DC0341E08091D603FD
:100BA0009091D7030E94B30484E690E00E94B000C5
:100BB0000F5F1F4FE0CF672B09F09AC01092DD0343
:100BC0001092DC032091D6033091D703EA01C21BB7
:100BD000D30B64E670E00E9490067B0100E010E019
:100BE0000E151F050CF084C0CE01B7010E949006BF
:100BF0008091D6039091D703860F971F9093D703C8
:100C00008093D6036091DC037091DD0341E00E9484
:100C1000B30484E690E00E94B0000F5F1F4FE0CF66
:100C20006130710591F51092DB031092DA03209187
:100C3000D8033091D903EA01C21BD30B64E670E0FC
:100C40000E9490067B0100E010E00E151F050CF0DD
:100C50004FC0CE01B7010E9490068091D8039091B9
:100C6000D903680F791F7093D9036093D80342E0CA
:100C70008091DA039091DB030E94B30484E690E054
:100C80000E94B0000F5F1F4FE0CF672B89F51092D5
:100C9000D9031092D8032091DA033091DB03EA01E3
:100CA000C21BD30B64E670E00E9490067B0100E05B
:100CB00010E00E151F05E4F4CE01B7010E94900666
:100CC0008091DA039091DB03860F971F9093DB03EB
:100CD0008093DA036091D8037091D90342E00E94B7
:100CE000B30484E690E00E94B0000F5F1F4FE1CF95
:100CF000DF91CF911F910F91FF90EF9008950E9487
:100D0000BC0081E00E94230161E0811101C060E02C
:100D100080E30E9426048AE090E00E94B000F1CFB8
:100D200097FB072E16F4009407D077FD09D00E9498
:100D3000EC0607FC05D03EF4909581959F4F0895F1
:100D4000709561957F4F0895A1E21A2EAA1BBB1BD7
:100D5000FD010DC0AA1FBB1FEE1FFF1FA217B30787
:100D6000E407F50720F0A21BB30BE40BF50B661F9D
:100D7000771F881F991F1A9469F760957095809561
:100D800090959B01AC01BD01CF010895052E97FB05
:100D90001EF400940E94DD0657FD07D00E94A406B1
:100DA00007FC03D04EF40C94DD0650954095309529
:100DB00021953F4F4F4F5F4F0895909580957095C7
:100DC00061957F4F8F4F9F4F08950E940007B7FF97
:100DD0000895821B930B0895AA1BBB1B51E107C00A
:100DE000AA1FBB1FA617B70710F0A61BB70B881FBB
:100DF000991F5A95A9F780959095BC01CD0108954A
:100E0000A29FB001B39FC001A39F700D811D11244B
:100E1000911DB29F700D811D1124911D08950F9396
:100E20001F93CF93DF938230910510F482E090E01E
:100E3000E091E003F091E10320E030E0A0E0B0E0D9
:100E4000309719F140815181028113814817590768
:100E5000C8F08417950769F4109731F012960C9337
:100E6000129713961C9327C00093E0031093E1039D
:100E700022C02115310519F04217530718F49A01C1
:100E8000BD01EF01DF01F801DBCF21153105F9F0DC
:100E9000281B390B2430310580F48A819B81611530
:100EA000710521F0FB019383828304C09093E103D9
:100EB0008093E003FE01329644C0FE01E20FF31F6F
:100EC0008193919322503109398328833AC020912C
:100ED000DE033091DF03232B41F420911201309186
:100EE00013013093DF032093DE0320911001309132
:100EF00011012115310541F42DB73EB74091140180
:100F000050911501241B350BE091DE03F091DF03B6
:100F1000E217F307A0F42E1B3F0B2817390778F0D0
:100F2000AC014E5F5F4F2417350748F04E0F5F1F2F
:100F30005093DF034093DE038193919302C0E0E07E
:100F4000F0E0CF01DF91CF911F910F910895CF93E2
:100F5000DF93009709F481C0FC013297138212825B
:100F6000A091E003B091E103109781F420813181D9
:100F7000820F931F2091DE033091DF03281739077A
:100F800051F5F093DF03E093DE0367C0ED0120E04D
:100F900030E0CE17DF0740F44A815B819E014115A6
:100FA0005105F1F0EA01F5CFD383C283408151812D
:100FB000840F951FC817D90759F488819981840F28
:100FC000951F0296918380838A819B81938382837C
:100FD0002115310529F4F093E103E093E0033DC0CE
:100FE000E901FB83EA8349915991C40FD51FEC179E
:100FF000FD0761F480819181840F951F0296E901BC
:1010000099838883828193819B838A83E0E0F0E0E7
:1010100012968D919C911397009719F0FD01DC01B8
:10102000F7CF8D919C9111979D012E5F3F4F820FBD
:10103000931F2091DE033091DF032817390769F4ED
:10104000309729F41092E1031092E00302C013825A
:101050001282B093DF03A093DE03DF91CF91089556
:04106000F894FFCF32
:1010640028292A2B2C2D2E2F3C003C000C010C018E
:101074000000E203200053454E5341202D204D6FC4
:10108400746F7220636F6E74726F6C20626F617222
:1010940064202D204445425547200A0A00537461B8
:1010A4007274696E6720696E69742E2E2E20004555
:1010B40052524F522120766F69642073797374659C
:1010C4006D5F696E697428766F696429202D2043E9
:1010D400414E205278204D6F62206E6F7420696EED
:1010E400697465642E2E2E2068616C74696E6720A5
:1010F40073797374656D0066696E69736865642ECF
:101104002E2E200A0A00494E464F21206862726939
:101114006467655F6D6F7665202D205B415F766146
:101124006C75652C20425F76616C75652C206E753C
:081134006D5D202D20002C0050
:00000001FF
