:100000000C944A000C9469000C9469000C946900EB
:100010000C9469000C9469000C9469000C946900BC
:100020000C9469000C9469000C9469000C946900AC
:100030000C9470000C9469000C9469000C94690095
:100040000C9469000C9469000C941C020C946900D7
:100050000C9469000C9469000C9469000C9469007C
:100060000C9469000C9469000C9469000C9469006C
:100070000C9469000C9469000C9469000C9469005C
:100080000C9469000C9469000C9469000C9469004C
:100090000C94690011241FBECFEFD0E1DEBFCDBFAD
:1000A00011E0A0E0B1E0E0E6F0E100E00BBF02C04B
:1000B00007900D92A039B107D9F723E0A0E9B1E08C
:1000C00001C01D92AA39B207E1F70E946B060C9499
:1000D0002E080C9400009093910180939001089554
:1000E0001F920F920FB60F9211240BB60F922F93FF
:1000F0003F934F935F936F937F938F939F93AF93B0
:10010000BF93EF93FF93E0919001F09191013097AD
:1001100009F009958091920190919301A091940129
:10012000B09195010196A11DB11D8093920190930C
:100130009301A0939401B0939501FF91EF91BF912A
:10014000AF919F918F917F916F915F914F913F916F
:100150002F910F900BBE0F900FBE0F901F90189510
:10016000CF93DF9360E875E280E090E00E94B601F3
:1001700086E191E00E941A028DE391E00E941A024A
:1001800041E061E080E30E94BA0341E061E081E385
:100190000E94BA0360E080E30E94150460E081E3FE
:1001A0000E94150461E080E30E9415040E949802F9
:1001B00084ED90E00E94DD028DE694E09093910141
:1001C000809390011092800089E08093810080E804
:1001D0009EE3909389008093880082E080936F0073
:1001E0008FB780688FBF0E9420010E943F05C0E04A
:1001F000D1E040E060E089910E94BA0381E0C8301C
:10020000D807B9F760E080E30E9415048FE491E01D
:10021000DF91CF910C941A02181619060CF008956C
:10022000EFE9FFE03197F1F700C000000197F4CF4C
:10023000E82FF0E0E050FF4F808181500C9444049F
:1002400040E061E080E10E94BA0340E061E081E1CA
:100250000E94BA0340E061E082E10E94BA0340E0FC
:1002600061E083E10E94BA0340E061E084E10E9422
:10027000BA0340E061E085E10E94BA0381E008959D
:1002800091E0811101C090E085E1613009F482E1E3
:10029000692F0C941504262F2150330BF901EE0F12
:1002A000FF1FE85FFE4F9183808308958F929F9296
:1002B000AF92BF92DF92EF92FF920F931F93CF9373
:1002C000DF938C01D62FC42F842F8150990BFC0112
:1002D000EE0FFF1FE85FFE4F80819181089F900124
:1002E000099F300D189F300D112450E040E060E66A
:1002F0007AEE80E090E00E94BA06490161E0D111F7
:1003000001C060E083E1C13009F480E10E9415047E
:1003100021E1D22EC13011F094E1D92EE40197FCF5
:100320002196D595C795F12CE12CE016F10661F4E4
:10033000DF91CF911F910F91FF90EF90DF90BF90D1
:10034000AF909F908F90089561E08D2D0E941504CD
:10035000CE010E940C0160E08D2D0E941504CE019B
:100360000E940C019FEFE91AF90ADFCF9B01AC0153
:1003700083E0220F331F441F551F8A95D1F760E099
:1003800074E284EF90E00E949806BA01A9014150FE
:10039000510961097109BB27A72F962F852F8093DB
:1003A000C5004093C400E0ECF0E08081826080836F
:1003B000E1ECF0E0808180618083699A68988081B7
:1003C0008860808380818B7F8083E2ECF0E0808195
:1003D0008F77808380818F7B808380818F7D8083F6
:1003E00080818F7E80838081877F80838081877FEB
:1003F000808380818460808380818260808308958F
:100400009091C00095FFFCCF8093C6000895809125
:10041000C00087FFFCCF8091C6000895CF93DF9383
:10042000EC018991811103C0DF91CF9108950E9461
:100430000002F7CF089508950F920FB60F921F9202
:1004400011242F932BB72F933F934F935F938F9349
:100450009F93AF93BF93EF93FF933091ED0080E0B4
:100460008093ED009091EE0095FF51C080E880935D
:10047000EF008091EE008F7D8093EE0090E080E0B1
:10048000EAE0409197012091FA00DC01E49FA00D81
:10049000B11D1124A756BE4F2C93019688309105AB
:1004A00081F72091F2008091F3004091970122950D
:1004B0002695277058E0859FC0011124822BE49F68
:1004C000F0011124E756FE4F9187808780919701B4
:1004D0008F5F80939701823311F41092970180917E
:1004E00096018F5F809396013093ED00FF91EF911D
:1004F000BF91AF919F918F915F914F913F912F91BC
:100500002BBF2F911F900F900FBE0F9018959091B9
:10051000EE0096FF08C01092EF008091EE008F7BF6
:100520008093EE00E1CF805F803F09F099CFDCCF70
:1005300081E08093D80080E08093ED001092EE007F
:100540001092EF001092F3001092F2001092F1005E
:100550001092F0001092F7001092F6001092F50041
:100560001092F4001092FA001092FA001092FA0021
:100570001092FA001092FA001092FA001092FA000B
:100580001092FA00805F803FB9F682E08093D80035
:1005900082E18093E2008CE08093E30087E3809324
:1005A000E4001092E50080EB8093DB008FE78093FE
:1005B000DF008FEF8093DE0008955091ED002091D1
:1005C000D90024FDFCCF2091D900422F487023FD93
:1005D000F6CF20E02093ED003091EF003295369574
:1005E0003695337031F0205F203FA1F75093ED0036
:1005F00020C02FE02093EF009C0193E036952795D3
:100600009A95E1F72F712093F3008295880F807EF1
:100610008093F20080EE8093F6008FEF8093F700D6
:100620008091EF0080688093EF0078945093ED0004
:1006300041E0842F08959091960181E0911101C0CD
:1006400080E00895CF93DF93209196012223E1F378
:10065000F894EC0130E020E0EAE040919801D90103
:10066000E49FA00DB11D1124A756BE4F4C91499394
:100670002F5F3F4F2830310581F720919801E29F8D
:10068000F0011124E756FE4F20853185FC013187AA
:100690002087809198018F5F80939801823311F4B5
:1006A00010929801809196018150809396017894E0
:1006B000DF91CF9108950F931F93CF93DF93CDB721
:1006C000DEB72A970FB6F894DEBF0FBECDBF098301
:1006D0001A832B833C834D835E836F83788789875E
:1006E0009A8729853A858091D90084FDFCCF909125
:1006F000D900892F887093FDF6CF5091ED0090E0DE
:100700009093ED004091EF004295469546954370D9
:1007100071F0905F903FA1F72A960FB6F894DEBF74
:100720000FBECDBFDF91CF911F910F910895822F02
:100730008295880F807E8093F20083E0369527951E
:100740008A95E1F72093F30088E08093EF00FE01A3
:100750003196CE01099621912093FA00E817F90706
:10076000D1F78091EF0080648093EF005093ED000B
:1007700081E0D2CF0F931F93CF93DF93182F042FD5
:10078000E0910E01F0910F013D97EF012D9681E070
:10079000CC30D80701F5E12FE695E695E695EF5FB9
:1007A000E150FF0BCF01880F991FE80FF91F212F90
:1007B000277081E090E001C0880F2A95EAF7282F82
:1007C00020956130A9F491A1892B81A382A1822374
:1007D00082A380E004C08081811306C081E0DF91A4
:1007E000CF911F910F9108950784F089E02DCCCF10
:1007F00081A1822381A381E190E00E940307FC0193
:10080000009761F3108301830D96A0910E01B091C2
:100810000F0111969C938E93B08BA787D687C587BF
:1008200090930F0180930E01D4CF962FE82FE69579
:10083000E695E695EF5FE150FF0B9F01220F331F16
:10084000E20FF31F42A153A164A175A150E087708C
:1008500021E030E002C0220F331F8A95E2F799238E
:1008600069F0CA01822B932B092E000CAA0BBB0B3B
:1008700082A393A3A4A3B5A380E00895C9018095A2
:10088000909584239523F0CFE0910E01F0910F0114
:100890003D9790E0EF3FF90711F481E008959081D2
:1008A000981317C0DF011296CF010B963D912C9142
:1008B000321711F084850895A817B907B9F7828116
:1008C0009181992321F091E0811190E0892F848713
:1008D00008950784F089E02DDBCFCF93DF93E0917B
:1008E0000E01F0910F013D97D0E0EF3FFD0761F45D
:1008F00080918D038F5F80938D038A3011F4109265
:100900008D03DF91CF9108952081A0918D03822FD7
:100910008695869586958F5F8150990BAC01440F23
:10092000551F840F951FEC0188A1AE0FBF2FB11D7D
:1009300090E0277002C0959587952A95E2F781701F
:1009400012968C930784F089E02DCDCFCF92DF9261
:10095000EF92FF920F931F93CF93DF938C01EB01E4
:10096000F42E8EE591E00E941A02C8010E941B023B
:100970008EE891E00E941A02CE010E941B028EE8CE
:1009800091E00E941A028F2D90E00E941B028CE5DC
:1009900091E00E941A0281E0F81661F082E0F816F8
:1009A000C9F1DF91CF911F910F91FF90EF90DF90F0
:1009B000CF9008952FEF3FEFD8010E94D90624E68B
:1009C00030E040E050E00E94BA0630939D00209352
:1009D0009C002FEF2C9FC0012D9F900D112464E6E9
:1009E00070E00E94840667BD0115110521F460E0E6
:1009F00085E20E941504209721F460E08FE00E94B8
:100A000015041093930300939203D0939103C09322
:100A10009003C7CF2FEF3FEFD8010E94D90624E6FD
:100A2000C22ED12CE12CF12CA70196010E94BA060E
:100A300030939900209398002FEF3FEFDE010E9442
:100A4000D906A70196010E94BA0630939B00209315
:100A50009A000115110521F460E083E20E9415045B
:100A6000209721F460E084E20E94150410938F0324
:100A700000938E03D0939503C093940392CF40E0EC
:100A800061E083E20E94BA0340E061E084E20E94F8
:100A9000BA0340E061E085E20E94BA0340E061E011
:100AA0008FE00E94BA0388E893E1909397008093C7
:100AB0009600109295001092940016BC1092990026
:100AC0001092980010929B0010929A0010929D0034
:100AD00010929C008AEA809390008AE180939100B2
:100AE00084B5896684BD41E070E060E090E080E01C
:100AF0000E94A60442E070E060E090E080E00E9486
:100B0000A60481E00895482F64E670E084E690E052
:100B10000C94A604EF92FF920F931F93CF93DF9351
:100B2000FC018B01EA01C901E130F10551F0329776
:100B300009F46BC0DF91CF911F910F91FF90EF905F
:100B400008956130710581F510928F0310928E0324
:100B50002091940330919503C21BD30B64E670E09F
:100B60000E9484067B0110E000E00E151F0514F7BB
:100B7000CE01B7010E948406809194039091950361
:100B8000680F791F709395036093940341E08091FF
:100B90008E0390918F030E94A60484E690E00E9449
:100BA0000C010F5F1F4FE1CF672B21F610929503C9
:100BB0001092940320918E0330918F03C21BD30BAC
:100BC00064E670E00E9484067B010E151F050CF0A0
:100BD000B1CFCE01B7010E94840680918E0390911F
:100BE0008F03860F971F90938F0380938E036091DE
:100BF00094037091950341E00E94A60484E690E07E
:100C00000E940C010F5F1F4FE0CF6130710589F525
:100C100010929303109292032091900330919103CC
:100C2000C21BD30B64E670E00E9484067B0110E0D7
:100C300000E00E151F050CF07DCFCE01B7010E941C
:100C400084068091900390919103680F791F7093AF
:100C500091036093900342E08091920390919303FB
:100C60000E94A60484E690E00E940C010F5F1F4FD3
:100C7000E0CF672B09F05ECF1092910310929003A2
:100C80002091920330919303C21BD30B64E670E072
:100C90000E9484067B010E151F050CF04BCFCE0180
:100CA000B7010E9484068091920390919303860F6E
:100CB000971F909393038093920360919003709198
:100CC000910342E00E94A60484E690E00E940C0199
:100CD0000F5F1F4FE0CFCDB7DEB72A970FB6F8945E
:100CE000DEBF0FBECDBF0E94B000CE0101960E94B4
:100CF000220389818134C9F78A8160E0811161E032
:100D000081E30E941504F1CF97FB072E16F400949F
:100D100007D077FD09D00E94E00607FC05D03EF41D
:100D2000909581959F4F0895709561957F4F089597
:100D3000A1E21A2EAA1BBB1BFD010DC0AA1FBB1FDF
:100D4000EE1FFF1FA217B307E407F50720F0A21B51
:100D5000B30BE40BF50B661F771F881F991F1A94BE
:100D600069F760957095809590959B01AC01BD01E8
:100D7000CF010895052E97FB1EF400940E94D10622
:100D800057FD07D00E94980607FC03D04EF40C9440
:100D9000D10650954095309521953F4F4F4F5F4F6D
:100DA000089590958095709561957F4F8F4F9F4FD7
:100DB00008950E94F406B7FF0895821B930B0895CF
:100DC000AA1BBB1B51E107C0AA1FBB1FA617B70771
:100DD00010F0A61BB70B881F991F5A95A9F780958D
:100DE0009095BC01CD010895A29FB001B39FC001B1
:100DF000A39F700D811D1124911DB29F700D811D47
:100E00001124911D08950F931F93CF93DF93823088
:100E1000910510F482E090E0E0919803F09199033D
:100E200030E020E0B0E0A0E0309799F421153105E2
:100E300009F447C0281B390B24303105C0F58A81DD
:100E40009B816115710571F1FB0193838283FE0122
:100E500011C0408151810281138148175907F8F070
:100E60004817590799F4109761F012960C9312974E
:100E700013961C933296CF01DF91CF911F910F9162
:100E800008950093980310939903F4CF2115310529
:100E900019F04217530718F49A01BD01EF01DF0161
:100EA000F801C2CF9093990380939803D0CFFE01AD
:100EB000E20FF31F819391932250310939832883E4
:100EC000DACF2091960330919703232B41F42091A0
:100ED00012013091130130939703209396032091D0
:100EE0001001309111012115310541F42DB73EB7A4
:100EF0004091140150911501241B350B409196032C
:100F0000509197034217530708F0B5CF241B350BB8
:100F10002817390708F4AFCFBC016E5F7F4F261743
:100F2000370708F4A8CF640F751F70939703609379
:100F30009603FA01819391939ECFCF93DF9300970D
:100F4000E9F0FC01329713821282C0919803D0918C
:100F50009903DE0130E020E02097A1F42081318167
:100F6000820F931F2091960330919703281739071A
:100F700009F067C0F0939703E0939603DF91CF9158
:100F80000895DA01AE17BF0708F040C012964D91E0
:100F90005C9113979D014115510599F7D90113965D
:100FA000FC93EE9312974D915D91A40FB51FEA1734
:100FB000FB0779F4808191810296840F951FD901F6
:100FC00011969C938E938281938113969C938E931A
:100FD0001297B0E0A0E08A819B810097B9F5FE01ED
:100FE00081919191E80FF91F809196039091970359
:100FF0008E179F0719F6109761F5109299031092BA
:101000009803D0939703C0939603B8CFB383A2837A
:1010100040815181840F951FA817B90771F44E5F65
:101020005F4F8D919C911197480F591F51834083B9
:1010300012968D919C91938382832115310509F03D
:10104000ADCFF0939903E093980398CFDE01EC01C4
:10105000C2CF13961C921E921297D3CFF894FFCF53
:1010600028292A2B2C2D2E2F3C003C000C010C0192
:1010700000009A03200053454E5341202D204D6F10
:10108000746F7220636F6E74726F6C20626F617226
:1010900064202D204445425547200A0A00537461BC
:1010A0007274696E6720696E69742E2E2E20006638
:1010B000696E69736865642E2E2E200A0A00494EF7
:1010C000464F2120686272696467655F6D6F76655F
:1010D000202D205B415F76616C75652C20425F7628
:1010E000616C75652C206E756D5D202D20002C00C7
:00000001FF
