:100000000C944A000C9469000C9469000C946900EB
:100010000C9469000C9469000C9469000C946900BC
:100020000C9469000C9469000C9469000C946900AC
:100030000C9470000C9469000C9469000C94690095
:100040000C9469000C9469000C9456020C9469009D
:100050000C9469000C9469000C9469000C9469007C
:100060000C9469000C9469000C9469000C9469006C
:100070000C9469000C9469000C9469000C9469005C
:100080000C9469000C9469000C9469000C9469004C
:100090000C94690011241FBECFEFD0E1DEBFCDBFAD
:1000A00011E0A0E0B1E0EAE8F2E100E00BBF02C03D
:1000B00007900D92A839B107D9F723E0A8E9B1E07C
:1000C00001C01D92A83BB207E1F70E94A5060C945F
:1000D00043090C940000909399018093980108952E
:1000E0001F920F920FB60F9211240BB60F922F93FF
:1000F0003F934F935F936F937F938F939F93AF93B0
:10010000BF93EF93FF93E0919801F091990130979D
:1001100009F0099580919A0190919B01A0919C0111
:10012000B0919D010196A11DB11D80939A019093FC
:100130009B01A0939C01B0939D01FF91EF91BF9112
:10014000AF919F918F917F916F915F914F913F916F
:100150002F910F900BBE0F900FBE0F901F90189510
:10016000CF93DF9360E875E280E090E00E94F001B9
:100170008EE191E00E94540285E491E00E945402D5
:1001800041E061E080E30E94F40341E061E081E34B
:100190000E94F40360E080E30E944F0460E081E38A
:1001A0000E944F0461E080E30E944F040E94D2024B
:1001B00084ED90E00E94170387EA94E09093990100
:1001C000809398011092800089E08093810080E8FC
:1001D0009EE3909389008093880082E080936F0073
:1001E0008FB780688FBF0E945A010E947905C0E0D6
:1001F000D1E040E060E089910E94F40381E0C830E2
:10020000D807B9F760E080E30E944F0487E591E0EA
:10021000DF91CF910C945402181619060CF0089532
:10022000EFE9FFE03197F1F700C000000197F4CF4C
:10023000E82FF0E0E050FF4F808181500C947E0465
:100240000F931F93CF93DF93CDB7DEB728970FB6E9
:10025000F894DEBF0FBECDBF81E0898388E0FE0148
:100260003196A1EAB3E001900D928A95E1F784E01E
:100270008093A9031092AA030091A1031091A203F5
:100280002091A3033091A4034091A5035091A603AC
:100290006091A7037091A80390E00E9495032896AF
:1002A0000FB6F894DEBF0FBECDBFDF91CF911F9187
:1002B0000F91089540E061E080E10E94F40340E086
:1002C00061E081E10E94F40340E061E082E10E948C
:1002D000F40340E061E083E10E94F40340E061E068
:1002E00084E10E94F40340E061E085E10E94F403B0
:1002F00081E0089591E0811101C090E085E16130D5
:1003000009F482E1692F0C944F04262F2150330BFE
:10031000F901EE0FFF1FE05FFE4F91838083089588
:100320008F929F92AF92BF92DF92EF92FF920F93C4
:100330001F93CF93DF938C01D62FC42F842F81502E
:10034000990BFC01EE0FFF1FE05FFE4F8081918152
:10035000089F9001099F300D189F300D112450E027
:1003600040E060E67AEE80E090E00E94CF0749012D
:1003700061E0D11101C060E083E1C13009F480E1A6
:100380000E944F0421E1D22EC13011F094E1D92E08
:10039000E40197FC2196D595C795F12CE12CE01648
:1003A000F10661F4DF91CF911F910F91FF90EF90D3
:1003B000DF90BF90AF909F908F90089561E08D2D5A
:1003C0000E944F04CE010E940C0160E08D2D0E941E
:1003D0004F04CE010E940C019FEFE91AF90ADFCF0A
:1003E0009B01AC0183E0220F331F441F551F8A95E8
:1003F000D1F760E074E284EF90E00E94AD07BA01AB
:10040000A9014150510961097109BB27A72F962FF6
:10041000852F8093C5004093C400E0ECF0E080811C
:1004200082608083E1ECF0E0808180618083699A62
:10043000689880818860808380818B7F8083E2ECF4
:10044000F0E080818F77808380818F7B80838081C3
:100450008F7D808380818F7E80838081877F808372
:100460008081877F808380818460808380818260B7
:10047000808308959091C00095FFFCCF8093C600C3
:1004800008958091C00087FFFCCF8091C600089539
:10049000CF93DF93EC018991811103C0DF91CF915C
:1004A00008950E943A02F7CF089508950F920FB66B
:1004B0000F921F9211242F932BB72F933F934F939B
:1004C0005F938F939F93AF93BF93EF93FF9330917D
:1004D000ED0080E08093ED009091EE0095FF51C01B
:1004E00080E88093EF008091EE008F7D8093EE0096
:1004F00090E080E0EAE040919F012091FA00DC0169
:10050000E49FA00DB11D1124AF55BE4F2C93019651
:100510008830910581F72091F2008091F30040919D
:100520009F0122952695277058E0859FC0011124D0
:10053000822BE49FF0011124EF55FE4F91878087B5
:1005400080919F018F5F80939F01823311F41092FD
:100550009F0180919E018F5F80939E013093ED00FB
:10056000FF91EF91BF91AF919F918F915F914F91CB
:100570003F912F912BBF2F911F900F900FBE0F9087
:1005800018959091EE0096FF08C01092EF008091B0
:10059000EE008F7B8093EE00E1CF805F803F09F01B
:1005A00099CFDCCF81E08093D80080E08093ED008C
:1005B0001092EE001092EF001092F3001092F200F1
:1005C0001092F1001092F0001092F7001092F600D5
:1005D0001092F5001092F4001092FA001092FA00B6
:1005E0001092FA001092FA001092FA001092FA009B
:1005F0001092FA001092FA00805F803FB9F682E014
:100600008093D80082E18093E2008CE08093E30045
:1006100087E38093E4001092E50080EB8093DB0099
:100620008FE78093DF008FEF8093DE000895509175
:10063000ED002091D90024FDFCCF2091D900422F5C
:10064000487023FDF6CF20E02093ED003091EF00BD
:10065000329536953695337031F0205F203FA1F703
:100660005093ED0020C02FE02093EF009C0193E019
:10067000369527959A95E1F72F712093F30082958F
:10068000880F807E8093F20080EE8093F6008FEFDB
:100690008093F7008091EF0080688093EF0078945A
:1006A0005093ED0041E0842F089590919E0181E0E8
:1006B000911101C080E00895CF93DF9320919E01B6
:1006C0002223E1F3F894EC0130E020E0EAE04091ED
:1006D000A001D901E49FA00DB11D1124AF55BE4F5B
:1006E0004C9149932F5F3F4F2830310581F720917E
:1006F000A001E29FF0011124EF55FE4F20853185C6
:10070000FC01318720878091A0018F5F8093A00139
:10071000823311F41092A00180919E018150809348
:100720009E017894DF91CF9108950F931F93CF93FB
:10073000DF93CDB7DEB72A970FB6F894DEBF0FBEB2
:10074000CDBF09831A832B833C834D835E836F83E4
:10075000788789879A8729853A858091D90084FD91
:10076000FCCF9091D900892F887093FDF6CF5091DE
:10077000ED0090E09093ED004091EF00429546959A
:100780004695437071F0905F903FA1F72A960FB69F
:10079000F894DEBF0FBECDBFDF91CF911F910F91B7
:1007A0000895822F8295880F807E8093F20083E0E7
:1007B000369527958A95E1F72093F30088E080939A
:1007C000EF00FE013196CE01099621912093FA00A7
:1007D000E817F907D1F78091EF0080648093EF006C
:1007E0005093ED0081E0D2CF0F931F93CF93DF930F
:1007F000182F042FE0911601F09117013D97EF019A
:100800002D9681E0C431D80701F5E12FE695E695F4
:10081000E695EF5FE150FF0BCF01880F991FE80FBE
:10082000F91F212F277081E090E001C0880F2A95E1
:10083000EAF7282F20956130A9F491A1892B81A393
:1008400082A1822382A380E004C08081811306C03C
:1008500081E0DF91CF911F910F9108950784F08976
:10086000E02DCCCF81A1822381A381E190E00E9481
:100870001808FC01009761F3108301830D96A09185
:100880001601B091170111969C938E93B08BA78798
:10089000D687C5879093170180931601D4CF962FE2
:1008A000E82FE695E695E695EF5FE150FF0B9F0197
:1008B000220F331FE20FF31F42A153A164A175A1C0
:1008C00050E0877021E030E002C0220F331F8A958C
:1008D000E2F7992369F0CA01822B932B092E000CB1
:1008E000AA0BBB0B82A393A3A4A3B5A380E0089596
:1008F000C9018095909584239523F0CFE09116014E
:10090000F09117013D9791E0E730F90711F481E08C
:1009100008959081981317C0DF011296CF010B96AE
:100920003D912C91321711F084850895A817B907CD
:10093000B9F782819181992321F091E0811190E0B2
:10094000892F848708950784F089E02DDBCFCF932A
:10095000DF93E0911601F09117013D97D1E0E73068
:10096000FD0761F4809195038F5F809395038A3032
:1009700011F410929503DF91CF9108952081A091F9
:100980009503822F8695869586958F5F8150990B6A
:10099000AC01440F551F840F951FEC0188A1AE0FC9
:1009A000BF2FB11D90E0277002C0959587952A95BD
:1009B000E2F7817012968C930784F089E02DCDCFF9
:1009C000CF92DF92EF92FF920F931F93CF93DF931B
:1009D0008C01EB01F42E86E691E00E945402C801DE
:1009E0000E94550286E991E00E945402CE010E94C5
:1009F000550286E991E00E9454028F2D90E00E94FA
:100A0000550284E691E00E94540281E0F81661F0FC
:100A100082E0F816C9F1DF91CF911F910F91FF90FD
:100A2000EF90DF90CF9008952FEF3FEFD8010E9415
:100A3000EE0724E630E040E050E00E94CF0730931C
:100A40009D0020939C002FEF2C9FC0012D9F900DA7
:100A5000112464E670E00E94990767BD0115110535
:100A600021F460E085E20E944F04209721F460E0C9
:100A70008FE00E944F041093B1030093B003D09312
:100A8000AF03C093AE03C7CF2FEF3FEFD8010E9453
:100A9000EE0724E6C22ED12CE12CF12CA701960101
:100AA0000E94CF0730939900209398002FEF3FEFDB
:100AB000DE010E94EE07A70196010E94CF07309346
:100AC0009B0020939A000115110521F460E083E258
:100AD0000E944F04209721F460E084E20E944F04BA
:100AE0001093AD030093AC03D093B303C093B20350
:100AF00092CF40E061E083E20E94F40340E061E0D5
:100B000084E20E94F40340E061E085E20E94F40385
:100B100040E061E08FE00E94F40388E893E1909365
:100B2000970080939600109295001092940016BC46
:100B3000109299001092980010929B0010929A00C7
:100B400010929D0010929C008AEA809390008AE1A6
:100B50008093910084B5896684BD41E070E060E0D7
:100B600090E080E00E94E00442E070E060E090E00D
:100B700080E00E94E00481E00895482F64E670E080
:100B800084E690E00C94E004EF92FF920F931F93A1
:100B9000CF93DF93FC018B01EA01C901E130F1053C
:100BA00051F0329709F46BC0DF91CF911F910F91F3
:100BB000FF90EF9008956130710581F51092AD03BB
:100BC0001092AC032091B2033091B303C21BD30B3C
:100BD00064E670E00E9499077B0110E000E00E15CA
:100BE0001F0514F7CE01B7010E9499078091B20347
:100BF0009091B303680F791F7093B3036093B203AE
:100C000041E08091AC039091AD030E94E00484E642
:100C100090E00E940C010F5F1F4FE1CF672B21F680
:100C20001092B3031092B2032091AC033091AD0344
:100C3000C21BD30B64E670E00E9499077B010E157E
:100C40001F050CF0B1CFCE01B7010E94990780912A
:100C5000AC039091AD03860F971F9093AD038093E3
:100C6000AC036091B2037091B30341E00E94E004D1
:100C700084E690E00E940C010F5F1F4FE0CF6130CF
:100C8000710589F51092B1031092B0032091AE0363
:100C90003091AF03C21BD30B64E670E00E9499074A
:100CA0007B0110E000E00E151F050CF07DCFCE019A
:100CB000B7010E9499078091AE039091AF03680F2E
:100CC000791F7093AF036093AE0342E08091B0034D
:100CD0009091B1030E94E00484E690E00E940C0130
:100CE0000F5F1F4FE0CF672B09F05ECF1092AF036D
:100CF0001092AE032091B0033091B103C21BD30B0D
:100D000064E670E00E9499077B010E151F050CF048
:100D10004BCFCE01B7010E9499078091B00390910B
:100D2000B103860F971F9093B1038093B003609136
:100D3000AE037091AF0342E00E94E00484E690E0CD
:100D40000E940C010F5F1F4FE0CFCDB7DEB7289791
:100D50000FB6F894DEBF0FBECDBF0E94B00084E096
:100D6000F82EE12C0E9455038130E1F787E993E0EA
:100D70000E945C03909197039093AB03809198033A
:100D8000809396039035F1F581110DC061E081E308
:100D90000E944F0484EF91E00E940C0160E081E327
:100DA0000E944F04DFCF8130E9F661E081E30E94C9
:100DB0004F0484EF91E00E940C0188E0E8E0F1E04C
:100DC000A1EAB3E001900D928A95E1F7F092A903B0
:100DD000E092AA030091A1031091A2032091A30322
:100DE0003091A4034091A5035091A6036091A703FD
:100DF0007091A8038F2D9E2D0E949503813009F0DC
:100E0000B1CFCCCF933529F50E941801898388E0B2
:100E1000FE013196A1EAB3E001900D928A95E1F7C7
:100E2000F092A903E092AA030091A1031091A203FA
:100E30002091A3033091A4034091A5035091A603F0
:100E40006091A7037091A8038F2D9E2D0E9495039A
:100E500089CF983409F042C08D34A9F460919B0386
:100E600070919C037627672776278091990390914C
:100E70009A0340919D039827892798270E94E004B0
:100E80000E9420016FCF823429F4809199030E943F
:100E9000BD05F6CF982F9F7D943509F063CF209143
:100EA0009D0330919E0332272327322740919B03D5
:100EB00050919C03542745275427609199037091C2
:100EC0009A03762767277627E1E0F0E0843511F46E
:100ED000F0E0E0E0CF010E94C405D2CF933709F0E3
:100EE00041CF853439F460919A03809199030E942F
:100EF0007A01C6CF823561F48091990390919A036B
:100F000060919B039827892798270E948501B8CF75
:100F10008D3409F027CF8091990390919A034091E5
:100F20009C0360919B039827892798270E94900132
:100F3000A7CF97FB072E16F4009407D077FD09D0B2
:100F40000E94F50707FC05D03EF4909581959F4FD0
:100F50000895709561957F4F0895A1E21A2EAA1BFE
:100F6000BB1BFD010DC0AA1FBB1FEE1FFF1FA21759
:100F7000B307E407F50720F0A21BB30BE40BF50B56
:100F8000661F771F881F991F1A9469F760957095DF
:100F9000809590959B01AC01BD01CF010895052E70
:100FA00097FB1EF400940E94E60757FD07D00E94AD
:100FB000AD0707FC03D04EF40C94E607509540951E
:100FC000309521953F4F4F4F5F4F089590958095F5
:100FD000709561957F4F8F4F9F4F08950E9409082C
:100FE000B7FF0895821B930B0895AA1BBB1B51E109
:100FF00007C0AA1FBB1FA617B70710F0A61BB70B89
:10100000881F991F5A95A9F780959095BC01CD012D
:101010000895A29FB001B39FC001A39F700D811DD1
:101020001124911DB29F700D811D1124911D0895F1
:101030000F931F93CF93DF938230910510F482E0DA
:1010400090E0E091B603F091B70330E020E0B0E02B
:10105000A0E0309799F42115310509F447C0281B09
:10106000390B24303105C0F58A819B8161157105EA
:1010700071F1FB0193838283FE0111C04081518194
:101080000281138148175907F8F04817590799F456
:10109000109761F012960C93129713961C93329648
:1010A000CF01DF91CF911F910F9108950093B60367
:1010B0001093B703F4CF2115310519F042175307E8
:1010C00018F49A01BD01EF01DF01F801C2CF90933E
:1010D000B7038093B603D0CFFE01E20FF31F8193D5
:1010E00091932250310939832883DACF2091B403B8
:1010F0003091B503232B41F420911A0130911B014B
:101100003093B5032093B403209118013091190155
:101110002115310541F42DB73EB740911C01509186
:101120001D01241B350B4091B4035091B5034217A8
:10113000530708F0B5CF241B350B2817390708F4DF
:10114000AFCFBC016E5F7F4F2617370708F4A8CFDB
:10115000640F751F7093B5036093B403FA01819314
:1011600091939ECFCF93DF930097E9F0FC013297E4
:1011700013821282C091B603D091B703DE0130E032
:1011800020E02097A1F420813181820F931F2091CC
:10119000B4033091B5032817390709F067C0F093FD
:1011A000B503E093B403DF91CF910895DA01AE1750
:1011B000BF0708F040C012964D915C9113979D01B6
:1011C0004115510599F7D9011396FC93EE931297A7
:1011D0004D915D91A40FB51FEA17FB0779F480814B
:1011E00091810296840F951FD90111969C938E933D
:1011F0008281938113969C938E931297B0E0A0E026
:101200008A819B810097B9F5FE0181919191E80F48
:10121000F91F8091B4039091B5038E179F0719F6BB
:10122000109761F51092B7031092B603D093B503EF
:10123000C093B403B8CFB383A28340815181840F9C
:10124000951FA817B90771F44E5F5F4F8D919C9160
:101250001197480F591F5183408312968D919C918D
:10126000938382832115310509F0ADCFF093B70345
:10127000E093B60398CFDE01EC01C2CF13961C9227
:0A1280001E921297D3CFF894FFCF0F
:10128A0028292A2B2C2D2E2FFFFFFFFFFFFFFFFF00
:10129A003C003C00140114010000B803200053452F
:1012AA004E5341202D204D6F746F7220636F6E7400
:1012BA00726F6C20626F617264202D204445425522
:1012CA0047200A0A005374617274696E6720696E56
:1012DA0069742E2E2E200066696E69736865642E05
:1012EA002E2E200A0A00494E464F21206862726952
:1012FA006467655F6D6F7665202D205B415F76615F
:10130A006C75652C20425F76616C75652C206E7554
:08131A006D5D202D20002C0068
:00000001FF
