:100000000C944A000C9469000C9469000C946900EB
:100010000C9469000C9469000C9469000C946900BC
:100020000C9469000C9469000C9469000C946900AC
:100030000C9470000C9469000C9469000C94690095
:100040000C9469000C9469000C9419020C946900DA
:100050000C9469000C9469000C9469000C9469007C
:100060000C9469000C9469000C9469000C9469006C
:100070000C9469000C9469000C9469000C9469005C
:100080000C9469000C9469000C9469000C9469004C
:100090000C94690011241FBECFEFD0E1DEBFCDBFAD
:1000A00011E0A0E0B1E0E8E0F2E100E00BBF02C047
:1000B00007900D92A439B107D9F723E0A4E9B1E084
:1000C00001C01D92A43BB207E1F70E9468060C94A0
:1000D00002090C9400009093950180939401089577
:1000E0001F920F920FB60F9211240BB60F922F93FF
:1000F0003F934F935F936F937F938F939F93AF93B0
:10010000BF93EF93FF93E0919401F09195013097A5
:1001100009F009958091960190919701A09198011D
:10012000B09199010196A11DB11D80939601909304
:100130009701A0939801B0939901FF91EF91BF911E
:10014000AF919F918F917F916F915F914F913F916F
:100150002F910F900BBE0F900FBE0F901F90189510
:10016000CF93DF9360E875E280E090E00E94B301F6
:100170008AE191E00E94170281E491E00E94170257
:1001800041E061E080E30E94B70341E061E081E388
:100190000E94B70360E080E30E94120460E081E304
:1001A0000E94120461E080E30E9412040E94950202
:1001B00084ED90E00E94DA028AE694E09093950143
:1001C000809394011092800089E08093810080E800
:1001D0009EE3909389008093880082E080936F0073
:1001E0008FB780688FBF0E945A010E943C05C0E013
:1001F000D1E040E060E089910E94B70381E0C8301F
:10020000D807B9F760E080E30E94120483E591E02B
:10021000DF91CF910C941702181619060CF008956F
:10022000EFE9FFE03197F1F700C000000197F4CF4C
:10023000E82FF0E0E050FF4F808181500C944104A2
:100240000F931F93CF93DF93CDB7DEB728970FB6E9
:10025000F894DEBF0FBECDBF81E0898388E0FE0148
:100260003196ADE9B3E001900D928A95E1F784E013
:100270008093A5031092A60300919D0310919E0305
:1002800020919F033091A0034091A1035091A203BC
:100290006091A3037091A40390E00E9458032896F4
:1002A0000FB6F894DEBF0FBECDBFDF91CF911F9187
:1002B0000F91089540E061E080E10E94B70340E0C3
:1002C00061E081E10E94B70340E061E083E10E94C8
:1002D000B70340E061E084E10E94B70381E0089544
:1002E00091E0811101C090E085E1613009F482E183
:1002F000692F0C9412040895EF92FF921F93CF93ED
:10030000DF937C01C42F91E0611101C090E083E193
:10031000C13009F480E1692F0E94120411E1C1305B
:1003200009F014E1D0E0C0E0CE15DF0531F4DF9133
:10033000CF911F91FF90EF90089561E0812F0E946F
:1003400012048FE99FE00197F1F700C0000060E020
:10035000812F0E9412048FE99FE00197F1F700C0FE
:1003600000002196E1CF9B01AC0183E0220F331FF7
:10037000441F551F8A95D1F760E074E284EF90E046
:100380000E946C07BA01A901415051096109710924
:10039000BB27A72F962F852F8093C5004093C400BD
:1003A000E0ECF0E0808182608083E1ECF0E080812D
:1003B00080618083699A6898808188608083808169
:1003C0008B7F8083E2ECF0E080818F778083808177
:1003D0008F7B808380818F7D808380818F7E8083EF
:1003E0008081877F80838081877F80838081846014
:1003F000808380818260808308959091C00095FF02
:10040000FCCF8093C60008958091C00087FFFCCF89
:100410008091C6000895CF93DF93EC0189918111FB
:1004200003C0DF91CF9108950E94FD01F7CF089599
:1004300008950F920FB60F921F9211242F932BB78E
:100440002F933F934F935F938F939F93AF93BF935C
:10045000EF93FF933091ED0080E08093ED00909159
:10046000EE0095FF51C080E88093EF008091EE0090
:100470008F7D8093EE0090E080E0EAE040919B0168
:100480002091FA00DC01E49FA00DB11D1124A356B8
:10049000BE4F2C9301968830910581F72091F20090
:1004A0008091F30040919B0122952695277058E09A
:1004B000859FC0011124822BE49FF0011124E35693
:1004C000FE4F9187808780919B018F5F80939B0176
:1004D000823311F410929B0180919A018F5F809377
:1004E0009A013093ED00FF91EF91BF91AF919F91F1
:1004F0008F915F914F913F912F912BBF2F911F9023
:100500000F900FBE0F9018959091EE0096FF08C0C7
:100510001092EF008091EE008F7B8093EE00E1CF90
:10052000805F803F09F099CFDCCF81E08093D800D5
:1005300080E08093ED001092EE001092EF00109298
:10054000F3001092F2001092F1001092F00010925D
:10055000F7001092F6001092F5001092F40010923D
:10056000FA001092FA001092FA001092FA0010921B
:10057000FA001092FA001092FA001092FA00805FCE
:10058000803FB9F682E08093D80082E18093E20058
:100590008CE08093E30087E38093E4001092E50011
:1005A00080EB8093DB008FE78093DF008FEF8093F9
:1005B000DE0008955091ED002091D90024FDFCCF7C
:1005C0002091D900422F487023FDF6CF20E02093E0
:1005D000ED003091EF00329536953695337031F05D
:1005E000205F203FA1F75093ED0020C02FE0209323
:1005F000EF009C0193E0369527959A95E1F72F71CE
:100600002093F3008295880F807E8093F20080EE25
:100610008093F6008FEF8093F7008091EF00806861
:100620008093EF0078945093ED0041E0842F08957B
:1006300090919A0181E0911101C080E00895CF93DB
:10064000DF9320919A012223E1F3F894EC0130E04A
:1006500020E0EAE040919C01D901E49FA00DB11D8A
:100660001124A356BE4F4C9149932F5F3F4F283022
:10067000310581F720919C01E29FF0011124E3569E
:10068000FE4F20853185FC013187208780919C01B8
:100690008F5F80939C01823311F410929C018091B2
:1006A0009A01815080939A017894DF91CF910895B7
:1006B0000F931F93CF93DF93CDB7DEB72A970FB673
:1006C000F894DEBF0FBECDBF09831A832B833C8312
:1006D0004D835E836F83788789879A8729853A85DA
:1006E0008091D90084FDFCCF9091D900892F88702A
:1006F00093FDF6CF5091ED0090E09093ED00409186
:10070000EF00429546954695437071F0905F903F9B
:10071000A1F72A960FB6F894DEBF0FBECDBFDF91CA
:10072000CF911F910F910895822F8295880F807E1F
:100730008093F20083E0369527958A95E1F7209320
:10074000F30088E08093EF00FE013196CE01099618
:1007500021912093FA00E817F907D1F78091EF0073
:1007600080648093EF005093ED0081E0D2CF0F932F
:100770001F93CF93DF93182F042FE0911201F09174
:1007800013013D97EF012D9681E0C031D80701F5A7
:10079000E12FE695E695E695EF5FE150FF0BCF017F
:1007A000880F991FE80FF91F212F277081E090E033
:1007B00001C0880F2A95EAF7282F20956130A9F407
:1007C00091A1892B81A382A1822382A380E004C00E
:1007D0008081811306C081E0DF91CF911F910F913D
:1007E00008950784F089E02DCCCF81A1822381A3D5
:1007F00081E190E00E94D707FC01009761F310832C
:1008000001830D96A0911201B091130111969C9352
:100810008E93B08BA787D687C5879093130180935B
:100820001201D4CF962FE82FE695E695E695EF5F77
:10083000E150FF0B9F01220F331FE20FF31F42A174
:1008400053A164A175A150E0877021E030E002C09F
:10085000220F331F8A95E2F7992369F0CA01822B90
:10086000932B092E000CAA0BBB0B82A393A3A4A36A
:10087000B5A380E00895C9018095909584239523C0
:10088000F0CFE0911201F09113013D9791E0E33038
:10089000F90711F481E008959081981317C0DF01E2
:1008A0001296CF010B963D912C91321711F0848551
:1008B0000895A817B907B9F782819181992321F08A
:1008C00091E0811190E0892F848708950784F08951
:1008D000E02DDBCFCF93DF93E0911201F091130174
:1008E0003D97D1E0E330FD0761F4809191038F5F84
:1008F000809391038A3011F410929103DF91CF918C
:1009000008952081A0919103822F869586958695E2
:100910008F5F8150990BAC01440F551F840F951FB9
:10092000EC0188A1AE0FBF2FB11D90E0277002C06F
:10093000959587952A95E2F7817012968C93078496
:10094000F089E02DCDCFCF92DF92EF92FF920F93FF
:100950001F93CF93DF938C01EB01F42E82E691E09D
:100960000E941702C8010E94180282E991E00E94C9
:100970001702CE010E94180282E991E00E9417023C
:100980008F2D90E00E94180280E691E00E941702ED
:1009900081E0F81661F082E0F816C9F1DF91CF919D
:1009A0001F910F91FF90EF90DF90CF9008952FEF60
:1009B0003FEFD8010E94AD0724E630E040E050E070
:1009C0000E948E0730939D0020939C002FEF2C9F58
:1009D000C0012D9F900D112464E670E00E9458071D
:1009E00067BD0115110521F460E085E20E94120443
:1009F000209721F460E08FE00E9412041093AD0371
:100A00000093AC03D093AB03C093AA03C7CF2FEFDF
:100A10003FEFD8010E94AD0724E6C22ED12CE12C75
:100A2000F12CA70196010E948E0730939900209324
:100A300098002FEF3FEFDE010E94AD07A70196015E
:100A40000E948E0730939B0020939A000115110598
:100A500021F460E083E20E941204209721F460E018
:100A600084E20E9412041093A9030093A803D09378
:100A7000AF03C093AE0392CF40E061E083E20E94F7
:100A8000B70340E061E084E20E94B70340E061E028
:100A900085E20E94B70340E061E08FE00E94B70367
:100AA00088E893E1909397008093960010929500C8
:100AB0001092940016BC1092990010929800109217
:100AC0009B0010929A0010929D0010929C008AEA5E
:100AD000809390008AE18093910084B5896684BDFB
:100AE00041E070E060E090E080E00E94A30442E01A
:100AF00070E060E090E080E00E94A30481E008954F
:100B0000482F64E670E084E690E00C94A304EF9232
:100B1000FF920F931F93CF93DF93FC018B01EA01A8
:100B2000C901E130F10551F0329709F46BC0DF9152
:100B3000CF911F910F91FF90EF9008956130710553
:100B400081F51092A9031092A8032091AE03309171
:100B5000AF03C21BD30B64E670E00E9458077B0111
:100B600010E000E00E151F0514F7CE01B7010E943A
:100B700058078091AE039091AF03680F791F70936F
:100B8000AF036093AE0341E08091A8039091A90365
:100B90000E94A30484E690E00E940C010F5F1F4FA7
:100BA000E1CF672B21F61092AF031092AE03209194
:100BB000A8033091A903C21BD30B64E670E00E9426
:100BC00058077B010E151F050CF0B1CFCE01B70100
:100BD0000E9458078091A8039091A903860F971F40
:100BE0009093A9038093A8036091AE037091AF0323
:100BF00041E00E94A30484E690E00E940C010F5F94
:100C00001F4FE0CF6130710589F51092AD0310924E
:100C1000AC032091AA033091AB03C21BD30B64E653
:100C200070E00E9458077B0110E000E00E151F05E0
:100C30000CF07DCFCE01B7010E9458078091AA0326
:100C40009091AB03680F791F7093AB036093AA0375
:100C500042E08091AC039091AD030E94A30484E62E
:100C600090E00E940C010F5F1F4FE0CF672B09F04F
:100C70005ECF1092AB031092AA032091AC03309187
:100C8000AD03C21BD30B64E670E00E9458077B01E2
:100C90000E151F050CF04BCFCE01B7010E9458076F
:100CA0008091AC039091AD03860F971F9093AD0395
:100CB0008093AC036091AA037091AB0342E00E9461
:100CC000A30484E690E00E940C010F5F1F4FE0CF69
:100CD000CDB7DEB728970FB6F894DEBF0FBECDBFF5
:100CE0000E94B00084E0F82EE12C0E9418038130AD
:100CF000E1F783E993E00E941F039091930390939F
:100D0000A70380919403809392039035D1F58111CC
:100D10000DC061E081E30E94120484EF91E00E9423
:100D20000C0160E081E30E941204DFCF8130E9F61C
:100D300061E081E30E94120488E0E8E0F1E0ADE9BF
:100D4000B3E001900D928A95E1F7F092A503E0924D
:100D5000A60300919D0310919E0320919F03309163
:100D6000A0034091A1035091A2036091A30370914D
:100D7000A4038F2D9E2D0E945803813009F0B5CF1A
:100D8000D0CF933529F50E941801898388E0FE01B0
:100D90003196ADE9B3E001900D928A95E1F7F092BA
:100DA000A503E092A60300919D0310919E0320915C
:100DB0009F033091A0034091A1035091A203609141
:100DC000A3037091A4038F2D9E2D0E9458038DCFF5
:100DD000983409F042C08D34A9F460919703709162
:100DE000980376276727762780919503909196033D
:100DF000409199039827892798270E94A3040E946D
:100E0000200173CF823429F4809195030E948005DC
:100E1000F6CF982F9F7D943509F067CF20919903E5
:100E200030919A033227232732274091970350911C
:100E30009803542745275427609195037091960392
:100E4000762767277627E1E0F0E0843511F4F0E0BB
:100E5000E0E0CF010E948705D2CF933709F045CF5C
:100E6000853439F460919603809195030E94700156
:100E7000C6CF823561F4809195039091960360917D
:100E800097039827892798270E947B01B8CF8D3434
:100E900009F02BCF80919503909196034091980390
:100EA000609197039827892798270E947C01A7CFF4
:100EB00097FB072E16F4009407D077FD09D00E9407
:100EC000B40707FC05D03EF4909581959F4F089597
:100ED000709561957F4F0895A1E21A2EAA1BBB1B46
:100EE000FD010DC0AA1FBB1FEE1FFF1FA217B307F6
:100EF000E407F50720F0A21BB30BE40BF50B661F0C
:100F0000771F881F991F1A9469F7609570958095CF
:100F100090959B01AC01BD01CF010895052E97FB73
:100F20001EF400940E94A50757FD07D00E946C078D
:100F300007FC03D04EF40C94A507509540953095CE
:100F400021953F4F4F4F5F4F089590958095709535
:100F500061957F4F8F4F9F4F08950E94C807B7FF3D
:100F60000895821B930B0895AA1BBB1B51E107C078
:100F7000AA1FBB1FA617B70710F0A61BB70B881F29
:100F8000991F5A95A9F780959095BC01CD010895B8
:100F9000A29FB001B39FC001A39F700D811D1124BA
:100FA000911DB29F700D811D1124911D08950F9305
:100FB0001F93CF93DF938230910510F482E090E08D
:100FC000E091B203F091B30330E020E0B0E0A0E0A4
:100FD000309799F42115310509F447C0281B390BC6
:100FE00024303105C0F58A819B816115710571F14D
:100FF000FB0193838283FE0111C0408151810281F4
:10100000138148175907F8F04817590799F41097B2
:1010100061F012960C93129713961C933296CF019F
:10102000DF91CF911F910F9108950093B203109318
:10103000B303F4CF2115310519F04217530718F403
:101040009A01BD01EF01DF01F801C2CF9093B30314
:101050008093B203D0CFFE01E20FF31F81939193EF
:101060002250310939832883DACF2091B00330919F
:10107000B103232B41F420911601309117013093D5
:10108000B1032093B0032091140130911501211573
:10109000310541F42DB73EB7409118015091190127
:1010A000241B350B4091B0035091B10342175307F5
:1010B00008F0B5CF241B350B2817390708F4AFCF3C
:1010C000BC016E5F7F4F2617370708F4A8CF640F67
:1010D000751F7093B1036093B003FA0181939193EC
:1010E0009ECFCF93DF930097E9F0FC0132971382F4
:1010F0001282C091B203D091B303DE0130E020E050
:101100002097A1F420813181820F931F2091B00399
:101110003091B1032817390709F067C0F093B10384
:10112000E093B003DF91CF910895DA01AE17BF07C6
:1011300008F040C012964D915C9113979D014115A6
:10114000510599F7D9011396FC93EE9312974D919F
:101150005D91A40FB51FEA17FB0779F48081918197
:101160000296840F951FD90111969C938E938281CC
:10117000938113969C938E931297B0E0A0E08A819E
:101180009B810097B9F5FE0181919191E80FF91FBC
:101190008091B0039091B1038E179F0719F61097B5
:1011A00061F51092B3031092B203D093B103C093D0
:1011B000B003B8CFB383A28340815181840F951FC0
:1011C000A817B90771F44E5F5F4F8D919C911197ED
:1011D000480F591F5183408312968D919C919383A0
:1011E00082832115310509F0ADCFF093B303E0936D
:1011F000B20398CFDE01EC01C2CF13961C921E926F
:081200001297D3CFF894FFCF41
:1012080028292A2B2C2D2E2FFFFFFFFFFFFFFFFF82
:10121800100110010000B403200053454E53412033
:101228002D204D6F746F7220636F6E74726F6C2017
:10123800626F617264202D204445425547200A0A96
:10124800005374617274696E6720696E69742E2E1A
:101258002E200066696E69736865642E2E2E200A3A
:101268000A00494E464F2120686272696467655FCB
:101278006D6F7665202D205B415F76616C75652CFE
:1012880020425F76616C75652C206E756D5D202D32
:0412980020002C0006
:00000001FF
