:100000000C944A000C9469000C9469000C946900EB
:100010000C9469000C9469000C9469000C946900BC
:100020000C9469000C9469000C9469000C946900AC
:100030000C9469000C9469000C9469000C9469009C
:100040000C9469000C9469000C94D8010C9469001C
:100050000C9469000C9469000C9469000C9469007C
:100060000C9469000C9469000C9469000C9469006C
:100070000C9469000C9469000C9469000C9469005C
:100080000C9469000C9469000C9469000C9469004C
:100090000C94690011241FBECFEFD0E1DEBFCDBFAD
:1000A00011E0A0E0B1E0E4EEFEE000E00BBF02C032
:1000B00007900D92AE3FB107D9F723E0AEEFB1E064
:1000C00001C01D92AB3FB207E1F70E94CD050C9431
:1000D00070070C9400001816190644F4E3ECF9E0DC
:1000E0003197F1F700C000000197F5CF089540E087
:1000F00061E080E30E946E0340E061E081E30E94E2
:100100006E0360E080E30E94D60360E081E30E941A
:10011000D60381E00895CF93C82F0E94030461E0C5
:10012000811160E08C2FCF910C94D603CF93C82F10
:100130000E948B0084E690E00E946B008C2F0E944E
:100140008B0084E690E0CF910C946B0060E875E240
:1001500080E090E00E9472018EE091E00E94D60162
:1001600085E391E00E94D6010E94770080E30E941F
:1001700096000E94540284ED90E00E949102811149
:100180000FC087E491E00E94D60180E30E948B00BB
:1001900081E30E948B0084E690E00E946B00F5CF23
:1001A0000E94DB000E94F10481E30E9496008FE828
:1001B00091E00C94D60140E061E080E10E946E0382
:1001C00040E061E081E10E946E0340E061E082E195
:1001D0000E946E0340E061E083E10E946E0340E014
:1001E00061E084E10E946E0340E061E085E10E94ED
:1001F0006E0381E0089591E0811101C090E06130CB
:1002000011F085E101C082E1692F0C94D603E62F3D
:10021000F0E0EE0FFF1FE250FF4F918380830895BF
:100220008F929F92AF92BF92DF92EF92FF920F93C5
:100230001F93CF93DF938C01D62FC42FE42FF0E0D0
:10024000EE0FFF1FE250FF4F80819181089F9001C8
:10025000099F300D189F300D112440E050E060E6FA
:100260007AEE80E090E00E941A0649015A0161E0AE
:10027000D11101C060E0C13011F083E101C080E123
:100280000E94D603C13019F421E1D22E02C094E1BC
:10029000D92EC40197FC0196EC01D595C795E12CA8
:1002A000F12CE016F10691F061E08D2D0E94D6034D
:1002B000CE010E946B0060E08D2D0E94D603CE011E
:1002C0000E946B008FEFE81AF80AEBCFDF91CF9115
:1002D0001F910F91FF90EF90DF90BF90AF909F9094
:1002E0008F9008959B01AC0183E0220F331F441FC0
:1002F000551F8A95D1F760E876E988E990E00E9479
:10030000F805BA01A9014150510961097109BB27DA
:10031000A72F962F852F8093C5004093C400E0EC53
:10032000F0E0808182608083E1ECF0E08081806198
:100330008083699A689880818860808380818B7FC0
:100340008083E2ECF0E080818F77808380818F7BF7
:10035000808380818F7D808380818F7E8083808178
:10036000877F80838081877F808380818460808392
:1003700080818260808308959091C00095FFFCCFBA
:100380008093C60008958091C00087FFFCCF8091C4
:10039000C6000895CF93DF93EC018991882319F06B
:1003A0000E94BC01FACFDF91CF910895089508957E
:1003B0001F920F920FB60F9211240BB60F922F932C
:1003C0003F934F935F938F939F93EF93FF9330915E
:1003D000ED0080E0982F9295907F9093ED009091A2
:1003E000EE0095FF40C080E88093EF008091EE0022
:1003F0008F7D8093EE0080E090E05AE04091FF0115
:100400002091FA00FC01549FE00DF11D1124EF5FD3
:10041000FD4F208301968830910581F7E091FF011F
:100420002091F2008091F30022952695277048E0F4
:10043000849FC0011124822B2AE0E29FF001112445
:10044000EF5FFD4F918780878091FF018F5F8093E1
:10045000FF01823311F41092FF018091FE018F5F42
:100460008093FE0110C09091EE0096FF08C010929C
:10047000EF008091EE008F7B8093EE0004C08F5FD1
:100480008F3009F0A7CF3093ED00FF91EF919F914E
:100490008F915F914F913F912F910F900BBE0F90D5
:1004A0000FBE0F901F90189581E08093D80080E0D8
:1004B000982F9295907F9093ED001092EE001092FD
:1004C000EF001092F3001092F2001092F1001092DF
:1004D000F0001092F7001092F6001092F5001092C2
:1004E000F40098E01092FA009150E1F78F5F8F309E
:1004F000F9F682E08093D80081E08093E2008AE000
:100500008093E3008EE68093E4001092E50080EB98
:100510008093DB008FE78093DF008FEF8093DE0016
:1005200008954091ED002091D90024FDFCCF209149
:10053000D90023FDF8CF20E0322F3295307F309361
:10054000ED003091EF00329536953695337039F0E5
:100550002F5F2F3089F74093ED0080E008952FE062
:100560002093EF009C01332793E0369527959A95C9
:10057000E1F72093F3008295880F807E8093F2004C
:1005800080EE8093F6008FEF8093F7008091EF006C
:1005900080688093EF0078944093ED0081E00895A7
:1005A0009091FE0181E0911101C080E008952091B9
:1005B000FE012223E1F3F894DC0120E030E05AE070
:1005C00040910002F901549FE00DF11D1124EF5FED
:1005D000FD4F40814D932F5F3F4F2830310581F70C
:1005E000E09100022AE0E29FF0011124EF5FFD4F4D
:1005F00020853185FC0131872087809100028F5F43
:1006000080930002823311F4109200028091FE0167
:1006100081508093FE01789408950F931F93CF9398
:10062000DF93CDB7DEB72A970FB6F894DEBF0FBEC3
:10063000CDBF09831A832B833C834D835E836F83F5
:10064000788789879A8789859A852091D90024FDA2
:10065000FCCF2091D90023FDF8CF4091ED0020E0A0
:10066000322F3295307F3093ED003091EF0032958C
:1006700036953695337029F02F5F2F3089F780E05B
:1006800022C0282F2295220F207E2093F20023E003
:10069000969587952A95E1F78093F30088E08093FB
:1006A000EF00FE013196CE01099621912093FA00C8
:1006B0008E179F07D1F78091EF0080648093EF0041
:1006C0004093ED0081E02A960FB6F894DEBF0FBE8E
:1006D000CDBFDF91CF911F910F9108950F931F937D
:1006E000CF93DF93E0910601F09107013597EF0179
:1006F000259691E0C430D90749F09081981302C043
:1007000081E04FC00780F085E02DF0CFE82FE6951F
:10071000E695E695EF5F582F5770F0E06130A9F449
:100720003197CF01880F991FE80FF91F21A181E0B0
:1007300090E001C0880F5A95EAF7922F982B91A369
:1007400092A18095892382A32BC0042F182F319763
:10075000CF01880F991FE80FF91F81A121E030E038
:1007600001C0220F5A95EAF72095282321A389E09A
:1007700090E00E944F06FC01009711F21083018364
:100780000596A0910601B091070111969C938E9356
:10079000B087A783D683C583909307018093060112
:1007A00080E0DF91CF911F910F910895482F4770FE
:1007B0008695869586958F5FE82FF0E03197CF017B
:1007C000880F991FE80FF91F82A193A1A4A1B5A1D9
:1007D00090E021E030E002C0220F331F4A95E2F79B
:1007E000662319F0822B932B04C020953095822329
:1007F0009323092E000CAA0BBB0B82A393A3A4A3E3
:10080000B5A380E00895E0910601F09107013597C6
:1008100090E0EF3FF907B1F0908198130FC082810B
:100820009381891711F0848108959181992321F092
:1008300091E0811190E0892F848308950780F085ED
:10084000E02DE5CF81E00895CF93DF93E09106019D
:10085000F0910701359780E0EF3FF80719F1A0917B
:10086000F503B091F6032081822F869586958695B3
:100870008F5F90E00197AC01440F551FEA01C80F4C
:10088000D91F88A1AE0FBF1F90E0277002C09595B9
:1008900087952A95E2F7817012968C930780F085F0
:1008A000E02DD8CF8091F5039091F60301969093B7
:1008B000F6038093F503029721F41092F603109249
:1008C000F503DF91CF910895CF92DF92EF92FF92DF
:1008D0000F931F93CF93DF938C01EB01F42E8EE9DE
:1008E00091E00E94D601C8010E94D7018EEC91E0F0
:1008F0000E94D601CE010E94D7018EEC91E00E94A9
:10090000D6018F2D90E00E94D7018CE991E00E94E2
:10091000D60181E0F81621F082E0F81659F158C0AE
:100920002FEF3FEFD8010E94390624E6C22ED12CCA
:10093000E12CF12CA70196010E941A063093990030
:10094000209398002FEF3FEFDE010E943906A701A8
:1009500096010E941A0630939B0020939A00012B67
:1009600021F460E083E20E94D603CD2B89F560E09C
:1009700085E224C02FEF3FEFD8010E94390624E61C
:1009800030E040E050E00E941A0630939D00209332
:100990009C002FEF2C9FC0012D9F900D112464E629
:1009A00070E00E94E40567BD012B21F460E084E261
:1009B0000E94D603CD2B61F460E08FE0DF91CF91F0
:1009C0001F910F91FF90EF90DF90CF900C94D60382
:1009D000DF91CF911F910F91FF90EF90DF90CF901B
:1009E000089540E061E083E20E946E0340E061E030
:1009F00085E20E946E0340E061E084E20E946E03A3
:100A000040E061E08FE00E946E0388E893E19093FC
:100A1000970080939600109295001092940016BC57
:100A2000109299001092980010929B0010929A00D8
:100A300010929D0010929C008AEA809390008AE1B7
:100A40008093910084B5896684BD41E060E070E0E8
:100A500080E090E00E94640442E060E070E080E0AA
:100A600090E00E94640481E008958F929F92AF927B
:100A7000BF92CF92DF92EF92FF920F931F93CF938B
:100A8000DF937C016B01842EB22E80ED91E00E94F9
:100A9000D601C0E0D0E000E010E084E6A82E98EC9B
:100AA000992E88ECE816F10408F46AC041E0B4120B
:100AB00021C0209198003091990081E090E02F3F73
:100AC0003F4F10F480E090E0A89E8001A99E100D99
:100AD000112420919A0030919B0081E090E02F3FFB
:100AE0003F4F10F480E090E0A89EE001A99ED00D59
:100AF00011241CC082E0B81219C020919C003091D2
:100B00009D0081E090E02F3F3F4F10F480E090E0A7
:100B1000A89E8001A99E100D112487B5C1E08F3FCA
:100B200008F4C0E084E6C89FE001112441E0C6015A
:100B300084120FC0801B910BB7010E94D005969EB6
:100B4000C001979E900D1124800F911F60E070E00E
:100B50000FC08C1B9D0BB7010E94D005969EC00153
:100B6000979E900D1124BC016C0F7D1F80E090E0DA
:100B70004B2D0E94640488EC90E00E946B0091CFA2
:100B8000DF91CF911F910F91FF90EF90DF90CF9069
:100B9000BF90AF909F908F9008950E94A600FFCFC6
:100BA000AA1BBB1B51E107C0AA1FBB1FA617B70793
:100BB00010F0A61BB70B881F991F5A95A9F78095AF
:100BC0009095BC01CD01089597FB072E16F4009473
:100BD00007D077FD09D00E94D00507FC05D03EF470
:100BE000909581959F4F0895709561957F4F0895D9
:100BF000A1E21A2EAA1BBB1BFD010DC0AA1FBB1F21
:100C0000EE1FFF1FA217B307E407F50720F0A21B92
:100C1000B30BE40BF50B661F771F881F991F1A94FF
:100C200069F760957095809590959B01AC01BD0129
:100C3000CF010895052E97FB1EF400940E94310603
:100C400057FD07D00E94F80507FC03D04EF40C9422
:100C5000310650954095309521953F4F4F4F5F4F4E
:100C6000089590958095709561957F4F8F4F9F4F18
:100C700008950E944006B7FF0895821B930B0895C4
:100C8000A29FB001B39FC001A39F700D811D1124CD
:100C9000911DB29F700D811D1124911D08950F9318
:100CA0001F93CF93DF938230910510F482E090E0A0
:100CB000E091F903F091FA0320E030E0A0E0B0E029
:100CC000309719F1408151810281138148175907EA
:100CD000C8F08417950769F4109731F012960C93B9
:100CE000129713961C9327C00093F9031093FA03ED
:100CF00022C02115310519F04217530718F49A0143
:100D0000BD01EF01DF01F801DBCF21153105F9F05D
:100D1000281B390B2430310580F48A819B816115B1
:100D2000710521F0FB019383828304C09093FA0341
:100D30008093F903FE01329644C0FE01E20FF31FD7
:100D40008193919322503109398328833AC02091AD
:100D5000F7033091F803232B41F420910A013091DD
:100D60000B013093F8032093F70320910801309191
:100D700009012115310541F42DB73EB740910C0111
:100D800050910D01241B350BE091F703F091F8030E
:100D9000E217F307A0F42E1B3F0B2817390778F052
:100DA000AC014E5F5F4F2417350748F04E0F5F1FB1
:100DB0005093F8034093F7038193919302C0E0E0CE
:100DC000F0E0CF01DF91CF911F910F910895CF9364
:100DD000DF93009709F481C0FC01329713821282DD
:100DE000A091F903B091FA03109781F42081318129
:100DF000820F931F2091F7033091F80328173907CA
:100E000051F5F093F803E093F70367C0ED0120E09C
:100E100030E0CE17DF0740F44A815B819E01411527
:100E20005105F1F0EA01F5CFD383C28340815181AE
:100E3000840F951FC817D90759F488819981840FA9
:100E4000951F0296918380838A819B8193838283FD
:100E50002115310529F4F093FA03E093F9033DC01D
:100E6000E901FB83EA8349915991C40FD51FEC171F
:100E7000FD0761F480819181840F951F0296E9013D
:100E800099838883828193819B838A83E0E0F0E069
:100E900012968D919C911397009719F0FD01DC013A
:100EA000F7CF8D919C9111979D012E5F3F4F820F3F
:100EB000931F2091F7033091F8032817390769F43D
:100EC000309729F41092FA031092F90302C01382AA
:100ED0001282B093F803A093F703DF91CF910895A6
:040EE000F894FFCFB4
:100EE4003C003C00040104010000FB0320005345C6
:100EF4004E5341202D204D6F746F7220636F6E74BA
:100F0400726F6C20626F617264202D2044454255DB
:100F140047200A0A005374617274696E6720696E0F
:100F240069742E2E2E20004552524F522120766F86
:100F340069642073797374656D5F696E697428766A
:100F44006F696429202D2043414E205278204D6F33
:100F540062206E6F7420696E697465642E2E2E2073
:100F640068616C74696E672073797374656D00666B
:100F7400696E69736865642E2E2E200A0A00494E34
:100F8400464F2120686272696467655F6D6F76659C
:100F9400202D205B415F76616C75652C20425F7665
:100FA400616C75652C206E756D5D202D20002C0004
:100FB400494E464F2120686272696467655F7469AF
:100FC4006D6564202D207374617274696E6720747A
:0E0FD400696D6564206D6F76652E2E2E0A0005
:00000001FF
